{
  "contractName": "Mycontract",
  "abi": [
    {
      "anonymous": false,
      "inputs": [
        {
          "indexed": false,
          "internalType": "address",
          "name": "Claimer",
          "type": "address"
        },
        {
          "indexed": false,
          "internalType": "uint256",
          "name": "Amount",
          "type": "uint256"
        }
      ],
      "name": "Ending",
      "type": "event"
    },
    {
      "anonymous": false,
      "inputs": [
        {
          "indexed": false,
          "internalType": "string",
          "name": "",
          "type": "string"
        }
      ],
      "name": "notify",
      "type": "event"
    },
    {
      "constant": true,
      "inputs": [
        {
          "internalType": "address",
          "name": "",
          "type": "address"
        }
      ],
      "name": "Details",
      "outputs": [
        {
          "internalType": "uint256",
          "name": "weight",
          "type": "uint256"
        },
        {
          "internalType": "uint256",
          "name": "Joinedon",
          "type": "uint256"
        },
        {
          "internalType": "bool",
          "name": "currentmember",
          "type": "bool"
        },
        {
          "internalType": "uint256",
          "name": "assets",
          "type": "uint256"
        },
        {
          "internalType": "uint256",
          "name": "investments",
          "type": "uint256"
        }
      ],
      "payable": false,
      "stateMutability": "view",
      "type": "function"
    },
    {
      "constant": true,
      "inputs": [
        {
          "internalType": "uint256",
          "name": "",
          "type": "uint256"
        }
      ],
      "name": "Investments",
      "outputs": [
        {
          "internalType": "uint256",
          "name": "",
          "type": "uint256"
        }
      ],
      "payable": false,
      "stateMutability": "view",
      "type": "function"
    },
    {
      "constant": true,
      "inputs": [
        {
          "internalType": "address",
          "name": "",
          "type": "address"
        }
      ],
      "name": "Membership",
      "outputs": [
        {
          "internalType": "uint256",
          "name": "",
          "type": "uint256"
        }
      ],
      "payable": false,
      "stateMutability": "view",
      "type": "function"
    },
    {
      "constant": true,
      "inputs": [
        {
          "internalType": "uint256",
          "name": "",
          "type": "uint256"
        }
      ],
      "name": "collaborators",
      "outputs": [
        {
          "internalType": "uint256",
          "name": "",
          "type": "uint256"
        }
      ],
      "payable": false,
      "stateMutability": "view",
      "type": "function"
    },
    {
      "constant": true,
      "inputs": [],
      "name": "state",
      "outputs": [
        {
          "internalType": "enum Mycontract.State",
          "name": "",
          "type": "uint8"
        }
      ],
      "payable": false,
      "stateMutability": "view",
      "type": "function"
    },
    {
      "constant": false,
      "inputs": [],
      "name": "register",
      "outputs": [],
      "payable": true,
      "stateMutability": "payable",
      "type": "function"
    },
    {
      "constant": false,
      "inputs": [
        {
          "internalType": "uint256",
          "name": "collabto",
          "type": "uint256"
        }
      ],
      "name": "Collaborate",
      "outputs": [],
      "payable": true,
      "stateMutability": "payable",
      "type": "function"
    },
    {
      "constant": false,
      "inputs": [
        {
          "internalType": "uint256",
          "name": "investin",
          "type": "uint256"
        }
      ],
      "name": "investInAsset",
      "outputs": [],
      "payable": true,
      "stateMutability": "payable",
      "type": "function"
    },
    {
      "constant": false,
      "inputs": [],
      "name": "unregister",
      "outputs": [],
      "payable": false,
      "stateMutability": "nonpayable",
      "type": "function"
    }
  ],
  "bytecode": "0x608060405234801561001057600080fd5b5061094a806100206000396000f3fe6080604052600436106100855760003560e01c8063c068b4af11610059578063c068b4af14610160578063c19d93fb146101c5578063c2a0a0d8146101fe578063e79a198f1461022c578063e88cc2be1461024357610085565b8062ffa18e1461008a5780631797d24d146100d95780631aa3a008146101075780631dc3a36d14610111575b600080fd5b34801561009657600080fd5b506100c3600480360360208110156100ad57600080fd5b81019080803590602001909291905050506102c8565b6040518082815260200191505060405180910390f35b610105600480360360208110156100ef57600080fd5b81019080803590602001909291905050506102e0565b005b61010f610488565b005b34801561011d57600080fd5b5061014a6004803603602081101561013457600080fd5b810190808035906020019092919050505061064a565b6040518082815260200191505060405180910390f35b34801561016c57600080fd5b506101af6004803603602081101561018357600080fd5b81019080803573ffffffffffffffffffffffffffffffffffffffff169060200190929190505050610662565b6040518082815260200191505060405180910390f35b3480156101d157600080fd5b506101da61067a565b604051808260028111156101ea57fe5b60ff16815260200191505060405180910390f35b61022a6004803603602081101561021457600080fd5b810190808035906020019092919050505061068d565b005b34801561023857600080fd5b50610241610759565b005b34801561024f57600080fd5b506102926004803603602081101561026657600080fd5b81019080803573ffffffffffffffffffffffffffffffffffffffff1690602001909291905050506108d2565b60405180868152602001858152602001841515151581526020018381526020018281526020019550505050505060405180910390f35b60046020528060005260406000206000915090505481565b6001600760003373ffffffffffffffffffffffffffffffffffffffff1673ffffffffffffffffffffffffffffffffffffffff168152602001908152602001600020541461032c57600080fd5b6001600281111561033957fe5b600260009054906101000a900460ff16600281111561035457fe5b146103c7576040517f08c379a00000000000000000000000000000000000000000000000000000000081526004018080602001828103825260188152602001807f54686973205374617465206973206e6f7420416374697665000000000000000081525060200191505060405180910390fd5b6001600760003373ffffffffffffffffffffffffffffffffffffffff1673ffffffffffffffffffffffffffffffffffffffff168152602001908152602001600020541461041357600080fd5b3460046000838152602001908152602001600020600082825401925050819055506001600660003373ffffffffffffffffffffffffffffffffffffffff1673ffffffffffffffffffffffffffffffffffffffff1681526020019081526020016000206004016000828254019250508190555050565b6001600760003373ffffffffffffffffffffffffffffffffffffffff1673ffffffffffffffffffffffffffffffffffffffff1681526020019081526020016000205414156104d557600080fd5b6001600760003373ffffffffffffffffffffffffffffffffffffffff1673ffffffffffffffffffffffffffffffffffffffff1681526020019081526020016000208190555042600660003373ffffffffffffffffffffffffffffffffffffffff1673ffffffffffffffffffffffffffffffffffffffff168152602001908152602001600020600101819055506001600660003373ffffffffffffffffffffffffffffffffffffffff1673ffffffffffffffffffffffffffffffffffffffff16815260200190815260200160002060020160006101000a81548160ff0219169083151502179055507fa396f8d98c67c164560cb969bf42c7fd20318f6a13d8a83e7a589a61fb1214b66040518080602001828103825260178152602001807f53756365737366756c6c7920526567697374657265642100000000000000000081525060200191505060405180910390a16001600260006101000a81548160ff0219169083600281111561064357fe5b0217905550565b60056020528060005260406000206000915090505481565b60076020528060005260406000206000915090505481565b600260009054906101000a900460ff1681565b6001600281111561069a57fe5b600260009054906101000a900460ff1660028111156106b557fe5b14610728576040517f08c379a00000000000000000000000000000000000000000000000000000000081526004018080602001828103825260188152602001807f54686973205374617465206973206e6f7420416374697665000000000000000081525060200191505060405180910390fd5b6001600560008381526020019081526020016000205401600560008381526020019081526020016000208190555050565b6001600760003373ffffffffffffffffffffffffffffffffffffffff1673ffffffffffffffffffffffffffffffffffffffff16815260200190815260200160002054146107a557600080fd5b6000600760003373ffffffffffffffffffffffffffffffffffffffff1673ffffffffffffffffffffffffffffffffffffffff168152602001908152602001600020819055506000600660003373ffffffffffffffffffffffffffffffffffffffff1673ffffffffffffffffffffffffffffffffffffffff16815260200190815260200160002060020160006101000a81548160ff0219169083151502179055507fa396f8d98c67c164560cb969bf42c7fd20318f6a13d8a83e7a589a61fb1214b66040518080602001828103825260198152602001807f596f7520617265206e6f7720756e72656769737465726564210000000000000081525060200191505060405180910390a160028060006101000a81548160ff021916908360028111156108cb57fe5b0217905550565b60066020528060005260406000206000915090508060000154908060010154908060020160009054906101000a900460ff1690806003015490806004015490508556fea265627a7a72315820cd4be1dfc6ff42688afce4b210f3f31a30d204feea1a664e6bb18ac7447026c764736f6c63430005100032",
  "source": "pragma solidity >=0.5.16;\r\n\r\ncontract Mycontract{\r\n    \r\n    address OrganizationHead;\r\n    \r\n    struct Members{\r\n        uint weight;\r\n        uint Joinedon;\r\n        bool currentmember;\r\n        uint assets;\r\n        uint investments;\r\n    } \r\n    \r\n    struct investments{\r\n        uint totalInvestment;\r\n    }\r\n    \r\n    bytes32 Pass;\r\n    \r\n    enum State {Start, Active, End}\r\n    State public state;\r\n    \r\n    address CurrentHighest;\r\n    address Claimer;\r\n    \r\n    mapping(uint => uint) public Investments;\r\n    mapping(uint => uint) public collaborators;\r\n    mapping(address => Members) public Details;\r\n    mapping(address => uint) public Membership;\r\n    \r\n    event Ending(address Claimer, uint Amount);\r\n    event notify(string);\r\n    \r\n    modifier onlyOrgLeader(){\r\n       require(msg.sender == OrganizationHead); \r\n       _;\r\n    }\r\n    \r\n    modifier Active{\r\n        require(state == State.Active, \"This State is not Active\");\r\n        _;\r\n    }\r\n    \r\n    modifier isMember(){\r\n        require(Membership[msg.sender] == 1);\r\n        _;\r\n    }\r\n    \r\n    function register() public payable{\r\n        if (Membership[msg.sender] == 1){\r\n            revert();\r\n        }\r\n        // Pass = keccak256(abi.encodePacked(password));\r\n        \r\n        \r\n        Membership[msg.sender] = 1;\r\n        Details[msg.sender].Joinedon = block.timestamp;\r\n        Details[msg.sender].currentmember = true;\r\n        \r\n        emit notify(\"Sucessfully Registered!\");\r\n        \r\n        state = State.Active;\r\n    }\r\n    \r\n    function Collaborate(uint collabto) public payable Active{\r\n        // require(Pass == keccak256(abi.encodePacked(passkey)), \"The Password is wrong!\");\r\n        collaborators[collabto] = collaborators[collabto] + 1;\r\n    }\r\n    \r\n    function investInAsset(uint investin) public payable isMember Active{\r\n        if(Membership[msg.sender] != 1){\r\n            revert();\r\n        }\r\n        Investments[investin] += msg.value;\r\n        \r\n        Details[msg.sender].investments += 1;\r\n    }\r\n\r\n    \r\n    function unregister() public{\r\n        if (Membership[msg.sender] != 1){\r\n            revert();\r\n        }\r\n        Membership[msg.sender] = 0;\r\n        Details[msg.sender].currentmember = false;\r\n        \r\n        emit notify(\"You are now unregistered!\");\r\n        \r\n        state = State.End;\r\n    }\r\n    \r\n    \r\n    \r\n    \r\n}\r\n\r\n\r\n// pragma solidity >=0.5.16;\r\n\r\n// contract Mycontract{\r\n    \r\n//     address organizationHead;\r\n    \r\n//     struct members{\r\n//         address lastinteraction;\r\n//         uint capital;\r\n//         uint Joinedon;\r\n//         bool currentmember;\r\n//         // uint hashmsg;\r\n//         uint assets;\r\n//     }\r\n    \r\n//     // struct Pass{\r\n//     //     bytes32 Password;\r\n//     // }\r\n    \r\n//     // bytes32 Password;\r\n    \r\n//     // mapping(address => bytes32) public Password;\r\n//     mapping(address => uint) public collaborators;\r\n//     mapping(address => uint) public membership;\r\n//     mapping(address=> members) public Details;\r\n    \r\n//     modifier onlyOrgLeader(){\r\n//        require(msg.sender == organizationHead); \r\n//        _;\r\n//     }\r\n    \r\n//     modifier orgmember(){\r\n//         require(membership[msg.sender] == 1);\r\n//         _;\r\n//     }\r\n    \r\n//     modifier onlymember(){\r\n//         require(membership[msg.sender] == 1);\r\n//         _;\r\n//     }\r\n    \r\n//     constructor() public{\r\n//         organizationHead = msg.sender;\r\n//     }\r\n    \r\n//     //Events\r\n    \r\n//     //Declare an Event\r\n//     event notify(string);\r\n    \r\n//     event Collab(address indexed _from, address indexed _to);\r\n    \r\n//     event Asset(address indexed _from, uint _value);\r\n\r\n\r\n    \r\n    \r\n//     function register() public payable{\r\n//         if(membership[msg.sender] == 1){\r\n//             revert();\r\n//         }\r\n    \r\n//         membership[msg.sender] = 1;\r\n//         Details[msg.sender].Joinedon = block.timestamp;\r\n//         Details[msg.sender].currentmember = true;\r\n        \r\n//         // Password[msg.sender] = bytes32(keccak256(abi.encodePacked(pass)));\r\n//         // Password = keccak256(abi.encodePacked(pass));\r\n\r\n        \r\n//         emit notify(\"Successfully Registered!\");\r\n//     }\r\n    \r\n//     function transferfunds(address payable transferto) public payable onlymember{\r\n//         if(membership[msg.sender] != 1){\r\n//             revert();\r\n//         }\r\n//         uint amount = msg.value;\r\n        \r\n//         Details[msg.sender].capital = Details[msg.sender].capital - amount;\r\n//         Details[transferto].capital = Details[transferto].capital + amount;\r\n        \r\n//         transferto.transfer(amount);\r\n//     }\r\n    \r\n//     function Collaborate(address colabto) public{\r\n//         // require(keccak256(abi.encodePacked(Passw)) == Password[msg.sender], \"The Pass Key was wrong !\");\r\n//         // require(Passw == Password);\r\n//         if(msg.sender == colabto){\r\n//             revert();\r\n//         }\r\n//         if(membership[msg.sender] != 1){\r\n//             revert();\r\n//         }\r\n//         collaborators[colabto] = collaborators[colabto] + 1;\r\n//         collaborators[msg.sender] = collaborators[msg.sender] + 1;\r\n        \r\n//         Details[colabto].lastinteraction = msg.sender;\r\n//         Details[msg.sender].lastinteraction = colabto;\r\n        \r\n//         // Details[colabto].hashmsg = Hashmsg;\r\n        \r\n//         emit Collab(msg.sender, colabto);\r\n        \r\n//     }\r\n    \r\n//     function registerAsset(uint AssetID) public onlyOrgLeader{\r\n//         Details[msg.sender].assets = AssetID;\r\n//         emit Asset(msg.sender, AssetID);\r\n//     }\r\n    \r\n//     function unregister() public{\r\n//         if(membership[msg.sender] != 1){\r\n//             revert();\r\n//         }\r\n//         membership[msg.sender] = 0;\r\n//         Details[msg.sender].currentmember = false;\r\n        \r\n//         emit notify(\"You have now been unregistered!\");\r\n//     }\r\n// }",
  "sourcePath": "C:/Users/Inesh Jupudy/Desktop/Blockchain/Spacelink-Dapp/Spacelink-contract/contracts/Mycontract.sol",
  "compiler": {
    "name": "solc",
    "version": "0.5.16+commit.9c3226ce.Emscripten.clang"
  },
  "schemaVersion": "3.3.4",
  "updatedAt": "2021-04-17T22:37:21.904Z",
  "networkType": "ethereum",
  "devdoc": {
    "methods": {}
  },
  "userdoc": {
    "methods": {}
  }
}